:020000040800F2
:1000000000800120F189000805890008078900089F
:10001000098900080B8900080D890008000000000C
:100020000000000000000000000000000F89000830
:1000300011890008000000001389000815890008D4
:10004000418A0008418A0008418A0008418A000864
:10005000418A0008418A0008418A0008418A000854
:10006000418A0008418A0008418A0008418A000844
:10007000418A0008418A0008418A0008418A000834
:10008000418A0008418A0008418A0008418A000824
:10009000418A0008418A0008418A0008418A000814
:1000A000418A0008418A0008418A0008418A000804
:1000B000418A0008418A0008418A0008418A0008F4
:1000C000418A0008418A0008418A0008418A0008E4
:1000D000418A0008418A0008418A0008418A0008D4
:1000E000418A0008418A0008418A0008418A0008C4
:1000F000418A0008418A0008418A0008418A0008B4
:10010000418A0008418A0008418A0008418A0008A3
:10011000418A0008418A0008418A0008418A000893
:10012000418A0008418A0008418A0008418A000883
:10013000418A0008418A0008418A0008418A000873
:10014000418A0008418A0008418A0008418A000863
:10015000418A0008418A0008418A0008418A000853
:10016000418A0008418A0008418A0008418A000843
:10017000418A0008418A0008418A00080000000006
:08018000418A0008418A0008D1
:1001900010B5054C237833B9044B13B10448AFF3C1
:1001A00000800123237010BDD00600200000000055
:1001B00050C3000808B5034B1BB103490348AFF314
:1001C000008008BD00000000D406002050C30008D5
:1001D00009B900207047C0F3C613C0F38232D318A8
:1001E0005943C91DC908420DC90002F00302430C5E
:1001F000D14003F00F03042B0BD0082B01BFC0F339
:10020000C612C0F38230821801EB0221C91DC80852
:100210007047C0F3C612C0F38230821801EB02119E
:10022000C91DC808704710B5044609F0C1FC204636
:1002300010BDDFF81404016849084900016001207D
:10024000DFF80814886088680028FCD1DFF80024F3
:100250000A600868DFF8FC13884200D0FEE7A1A01E
:100260007047DFF8E4030168490849000160012094
:10027000DFF8D813886088680028FCD1DFF8D02325
:100280000A600868DFF8CC13884200D0FEE70FF25E
:10029000DC3210687047DFF8B00301684908490094
:1002A00001600120DFF8A413886088680028FCD171
:1002B000DFF89C230A600868DFF89813884200D0B2
:1002C000FEE70FF2AC3210687047DFF87C0301687C
:1002D0004908490001600120DFF8701388608868D0
:1002E0000028FCD1DFF868230A600868DFF864138F
:1002F000884200D0FEE70FF27C321068704720B1D0
:100300000168DFF85423914200D00020DFF8381351
:100310000A68520852000A600121DFF83023916018
:1003200091680029FCD1DFF8283313601168DFF8E9
:100330002423914200D0FEE77047DFF81C130160D0
:10034000704708467047704720B10168DFF80823FE
:10035000914200D00020BC490A68520852000A604D
:100360000121BA4A916091680029FCD1B84B136011
:100370001168B84A914200D0FEE700281CBF0C303B
:1003800000F08AB90FF200300068704700281CBFE7
:100390000C3000F086B9704770B5049D044605988E
:1003A000DBB22D0445EA036545EA00250FF2DC20A7
:1003B0000668A54801684908490001600120A34971
:1003C000886088680028FCD1A14B0B600868A149AF
:1003D000884200D0FEE71CB90FF2B420006870BD5F
:1003E0009D491160226000F055F910B90FF2882084
:1003F0000BE09A498D4228BF0FF2802005D20FF200
:10040000802000F063F918B99EA0066800212160E1
:10041000304670BD28B101688F4A914208BF02463C
:1004200000D0002288490B685B085B000B6001214B
:10043000864B996099680029FCD1DFF814C2C3F893
:1004400000C01968834B994200D0FEE702B100203A
:1004500070472DE9F04381B00A4618B101687E4B20
:10046000994200D0002078490B685B085B000B6064
:100470000121764B996099680029FCD1744C1C606D
:100480001968744B994200D0FEE740B30AB91122B3
:1004900006E0D16909B9132202E0D16841B91222FC
:1004A00010210C3000F0FDF8002001B0BDE8F08311
:1004B00078CA00F1140100F1240781E8780092E87D
:1004C000005387E8005303218160C26B3AB1916801
:1004D00050608A4218BF002918BF0A46F7D101B000
:1004E000BDE8F083000000002DE9F04F83B028B193
:1004F0000368594CA34208BF054600D00025524866
:1005000003685B085B0003600120504B98609868AB
:100510000028FCD14E4C1C6018684E4B984200D00D
:10052000FEE7002D48D0AB6803F00300032802D09B
:10053000302211213CE00F001CBFF868002835D0A4
:10054000788808B9212232E014000BD0E16851B359
:10055000618811B9212213212AE0884202D0212288
:10056000022125E0D8054CBF02200020590A01F0E5
:10057000010141EA0008686BA96B066808680090F1
:1005800071683068FFF724FE0190009841680068A8
:10059000FFF71EFEF968002C024614BFD4F80CB019
:1005A0004FF0000B0CE01722132101E0172212215B
:1005B00005F10C0000F075F8002003B0BDE8F08FE5
:1005C00018F0020014BFDFF89890DFF898905FEA07
:1005D000C8734CBFDFF888A0DFF88CA07B882B8223
:1005E00000276F8208B9B160F16044B15FEAC8705A
:1005F00005D4009BC3F808B00098C0F80CB0688A16
:100600002B8A98421CD22C463546019E17468846B6
:10061000A86832464146C847A860B044204600F06A
:10062000D7F8009881683A465846D04700EB070B48
:10063000608A218A401C608280B28842E8D32546C5
:10064000688A03B0BDE8F08F002000E0003002406F
:10065000C2A507F4CDB5E8B50001C0A101000101B4
:1006600027020008430300084703000803030000B3
:100670000100000001010000301000000110000026
:100680000384048402100000101000000000000029
:1006900010100000012070470146002208680A601F
:1006A000704703785FEA036C04D141EA02210160DC
:1006B000012070470020704710B50446E168884764
:1006C000A068A04208BF002010BD000000B581B0A6
:1006D00060B10178032909D15FF0040263A109F038
:1006E00093FA401E8041C00F01B000BD002001B050
:1006F00000BD000042F21172811A012984BFC91E97
:100700000D2901D90F3945D1801A21D0401E21D0A1
:10071000801E21D0401E21D0401E21D0401E21D05D
:10072000401E21D0401E21D0401E21D0401E21D08D
:10073000401E21D0401E21D0401E21D0401E21D07D
:10074000401E21D0401E21D0801E21D012A0704713
:1007500012A0704712A0704727A0704728A07047CA
:1007600010A0704710A0704727A070470FA07047D7
:1007700027A0704728A070472CA070472DA0704775
:100780000BA070472DA070472EA0704730A0704777
:1007900034A0704700A070470000000041444400AE
:1007A000424E0000475255004C524E004E4C000045
:1007B000534D000042F21171401A012884BFC01E3F
:1007C0000D2801D90F3801D1012070470020704752
:1007D00030B5044681B0E06B58B12064256CE968FF
:1007E00028468847A868A84208BF0020002820643F
:1007F000F4D101B030BD0000434F4E5632440000EA
:1008000044454E53450000004C53544D0000000039
:100810004E4F524D000000004F5054494D495A452B
:10082000445F434F4E563244000000005045524D45
:1008300055544500504F4F4C0000000053504C4958
:100840005400000054494D455F44454C4159000057
:1008500054494D455F4449535452494255544544C7
:1008600000000000434F4E434154000003840484C1
:100870002DE9F04F81B00D9D139CDDF82C900E9E5C
:100880000A98DDF83CB0DDF840C0DDF844E0DDF862
:1008900048802F1B09FB07FA371B07FB09F7009756
:1008A00088420CBF9FED860AB7EE000A05FB0CF5E7
:1008B00006FB09F706FB0C8606FB09F603EB86032D
:1008C0000C9EABEB0E0B04FB09F409FB05F5002EA7
:1008D0000BFB07FB02EB85094ED00D46194632464D
:1008E0004FEA0003D3ED000ABEF1010F60EE800A6B
:1008F0004E4639DBDDF800C07046012C2CDB14F0CD
:1009000003080AD091ED001AD6ED001A361D091D14
:10091000B8F1010841EE210AF4D1A70800F01C80CB
:1009200091ED002A96ED001AD1ED011AD6ED012ABB
:1009300042EE010A41EEA20A91ED022A96ED021A58
:10094000D1ED031AD6ED032A1036103142EE010A1A
:100950007F1E41EEA20AE3D1401E06EB8A0601EBA0
:100960008C01CAD1CDF800C0C5ED000A2D1D1B1D9C
:10097000521E01EB8B01B5D101B0BDE8F08F000034
:100980002DE9F24F84B0149FDDF858B0119D1398F3
:10099000159CDDF85CC0DDF83CA0109EDDF84890A9
:1009A00009FB07BB114603EB8B0B0E9A049BA5EBCF
:1009B0000C0E001B9A420CBF9FED410AB7EE000AD5
:1009C0007D430AFB05F501EB8501002501EB8A0754
:1009D000B942B6FBFAF60AFB0EFEA9EB0C0800FBC7
:1009E00009F0009768D20E920396039A002A5FD00E
:1009F000049B0E9A029003EB8507039BCDF804102D
:100A000002EB8506D6ED000ADDF80490012C60EEBD
:100A1000800A41DB4FEA0402BCF1010F36DB1CF017
:100A200003010BD09BED001AD9ED001A491E41EECF
:100A3000210A0BF1040B09EB8A09F3D15FEA9C0050
:100A400000F024809BED001AD9ED001A09EB8A0111
:100A500041EE210ADBED011A91ED001A01EB8A014A
:100A600041EE810A9BED021AD1ED001A01EB8A01D9
:100A700041EE210ADBED031A91ED001A401E41EE12
:100A8000810A0BF1100B01EB8A09DBD1521E09EB35
:100A90008E090BEB880BBFD10298C7ED000A6D1CC5
:100AA0003F1D361D5B1E0BEB800BABD102980199ED
:100AB000009A091D914298D305B0BDE8F08F00005F
:100AC000000000002DE9F24F84B0DDF84CE0DDF8C5
:100AD00058C018981099129C159D0F9FAEEB0C0EE4
:100AE0009246149AB1FBF2F91199CDF80C90091ABB
:100AF00079431E46B7FBF2F304FB03FB0EFB0BFE30
:100B0000DDF85CB0A7EB0309A4EB000804FB05B417
:100B10005C4306EB84040E9EDDF810B05E45119E2A
:100B20000CBF9FED3F0AB7EE000A75436F430AEB17
:100B30008705002A08FB03F84FF0000A6CD00092EA
:100B4000039A002A62D00E9A049FCDF858C002EB97
:100B50008A06039ACDF808E007EB8A07CDF804501F
:100B6000DDF858E0D6ED000A019DBEF1010F60EE00
:100B7000800A3BDB012832DB4FEA000C05EB830BDC
:100B80005D4527D294ED001AD5ED001A2D1D241DC8
:100B90005D4541EE210A1DD294ED001AD5ED001AF3
:100BA0002D1D241D5D4541EE210A13D294ED001A3E
:100BB000D5ED001A2D1D241D5D4541EE210A09D2F7
:100BC00094ED001AD5ED001A2D1D241D5D4541EE52
:100BD000210AD7D3BCF1010C05EB8905CED1BEF1BA
:100BE000010E05EB810504EB8804C3D1029DC7ED1E
:100BF000000A3F1D361D521E04EB85040AF1010A4E
:100C0000AED1DDF858C0DDF808E0019D009A521E13
:100C100005EB8305009293D105B0BDE8F08F00008D
:100C2000000000002DE9F04F8DB0169C04B90C4671
:100C30001E9F1D9EDDF87080DDF880E01F9DDDF8B1
:100C400060C0DDF86490DDF868A0DDF86CB00B9052
:100C5000BF1B1798B8F1010FAEEB050E14D1CDF8FC
:100C600024E0089507970190CDF808C00696CDF8C6
:100C700014B0CDF810A0CDF80C9000940B98FFF7AD
:100C8000F7FD0DB0BDE8F08F804514D1CDF824E01C
:100C9000089507970190CDF808C00696CDF814B0D6
:100CA000CDF810A0CDF80C9000940B98FFF768FEDB
:100CB0000DB0BDE8F08FCDF828E0099508970190B8
:100CC000CDF808C00796CDF81880CDF814B0CDF84F
:100CD00010A0CDF80C9000940B98FFF7F3FE0DB028
:100CE000BDE8F08F70470000F0B40446049803EBB1
:100CF0008005203D08289FEDD90A2FD22035AB4230
:100D000024D2087893ED001A02EB8006181DD6ED68
:100D1000000AA84200EE810A18D24B7890ED001A22
:100D200002EB8306001DD6ED000AA84200EE810A00
:100D30000CD28B7890ED001A02EB8306031DC91CC0
:100D4000D6ED000AAB4200EE810ADAD3D4ED000AF8
:100D500030EE800A84ED000AF0BC704701F0030019
:100D60000328F3D8DFE800F00336414CEEE79D425C
:100D700080F0D5802035AB42E8D2087893ED001A98
:100D800002EB8006181DD6ED000AA84200EE810A8B
:100D9000DCD24B7890ED001A02EB8306001DD6EDF5
:100DA000000AA84200EE810AD0D28B7890ED001A9A
:100DB00002EB8306031DC91CD6ED000AAB4200EE10
:100DC000810ADAD3D4ED000A30EE800A84ED000AFD
:100DD000F0BC704711F8010B93ED001A02EB80068E
:100DE0001B1DD6ED000A00EE810A11F8010B93EDF0
:100DF000001A02EB80061B1DD6ED000A00EE810AE8
:100E000011F8010B93ED001A02EB80061B1DD6EDC5
:100E1000000A9D4200EE810A4ED3CF7893ED004A3E
:100E200093ED013A93ED022A93ED031A02EB870644
:100E30008F78D6ED000A02EB87064F78D6ED001AC0
:100E400002EB87060F78D6ED002A02EB870603F146
:100E50001000D6ED003A0B7903EE840A02EE830A05
:100E600001EE820A02EB830700EE810A4B79D7ED8F
:100E7000000A90ED004AD0ED013A90ED023AD0ED33
:100E8000032A02EB83078B7997ED001A02EB8307A5
:100E9000CB79D7ED001A02EB830700EE840A083104
:100EA00000F1100301EE230A97ED002A01EE830AF8
:100EB0009D4202EE220AB0D22035AB42BFF446AFCB
:100EC000087893ED001A02EB8006181DD6ED000A93
:100ED000A84200EE810ABFF439AF4B7890ED001ABA
:100EE00002EB8306001DD6ED000AA84200EE810A3F
:100EF000BFF42CAF8B7890ED001A02EB8306031D34
:100F0000C91CD6ED000AAB4200EE810AD8D3D4ED5D
:100F1000000A30EE800A84ED000AF0BC7047CF78FA
:100F200093ED004A93ED013A93ED022A93ED031AF3
:100F300002EB87068F78D6ED000A02EB87064F7822
:100F4000D6ED001A02EB87060F78D6ED002A02EBE9
:100F5000870603F11000D6ED003A0B7903EE840A00
:100F600002EE830A01EE820A02EB830700EE810A99
:100F70004B79D7ED000A90ED004AD0ED013A90EDA3
:100F8000023AD0ED032A02EB83078B7997ED001A22
:100F900002EB8307CB79D7ED001A02EB830700EE53
:100FA000840A083100F1100301EE230A97ED002AAC
:100FB00001EE830A9D4202EE220AB0D2DAE6000078
:100FC000F0B4049C65086D0003EB8505AB429FED12
:100FD000230A2FD211F8016B93ED002A93ED011A29
:100FE00006F00F07360902EB860602EB8707D6EDFF
:100FF000001AD7ED000A083301EE820AAB4200EE78
:10100000810A17D211F8016B93ED002A93ED011AB2
:1010100006F00F07360902EB860602EB8707D6EDCE
:10102000001AD7ED000A083301EE820AAB4200EE47
:10103000810ACFD3E40709D5097893ED001A09098D
:1010400002EB8102D2ED000A00EE810AD0ED001A17
:1010500031EE800A80ED000AF0BC7047000000000D
:101060002DE9F04F05469BB0686900680168426849
:1010700080680F68D2F800A0D0F800E04068BA6835
:101080000D920028DAF808300193DAF81010DAF837
:101090000C903C69D7F80C802B8C0C93AE8C0F967F
:1010A000EA6A2E8DDEF80C300E9392B2DEF808302C
:1010B00000933F68D7F808C0DEF80070D7F808E062
:1010C000AB691ABF006887680027DAF80000D0F81B
:1010D00008A0E869002814BF0546DFF810575242FF
:1010E00000290B926BD076421996CDF85890159442
:1010F0001091DDF838B00B9815990B9A169C199E33
:101100004042D8BF0020891A594528BF5946002CB3
:1011100008FB02624BD00294CDF838B0019CDDF898
:1011200000901493CDF84CC0CDF848E0119718907A
:1011300017919346029F7042D8BF0020A8EB06018A
:10114000494528BF49460A910990CDF81090CDF83D
:101150000C80029458441799189A129B0891079290
:1011600014990E9A069105920D99119A0191009287
:101170000D9A1399504301EB800251460020FFF76E
:1011800051FD224651465046A8470C9886197F1EAD
:101190000AEB840A8344CED10194CDF80090DDF8A7
:1011A00038B0149BDDF84CC0DDF848E0119F0B9976
:1011B0000F9A109C5118641E0B9110949BD11BB078
:1011C000BDE8F08F2DE9F04F0346B5B058690068CF
:1011D00001684268D1F800B017688068D0F800A0B4
:1011E00044680BF1140191E864102DA880E86410A4
:1011F000DBF808000490B96803913869FA681B921B
:10120000DBF810500D95DBF80C2002921D8C119527
:101210009A8C198D1091B3F82CC0D3F830E05D6B27
:10122000ADF804509E690C96DAF8081000919D6B99
:10123000DAF80C100F95DD6B1A951D6C19955D6C25
:101240001D953E6AD3F84880DD6C46430596002C18
:10125000FE691896DBF80060B6681796DAF8006049
:10126000B6680B961ABF2468D4F808B04FF0000B8C
:10127000DC69002C12BF0E94DFF870450E941E6DD1
:10128000009C16966D42029B3F68BDF80460A3EB7C
:101290000409109B119C994419FA8EF3D7F808E0C1
:1012A000059FB3FBF4F40D9B5B1A63449E19B6FBD8
:1012B000F2F3641C5B1C77440028159700F018813A
:1012C000C8F10008CDF8D0802A9314952490149B7F
:1012D000149D1A9E2A98002BD8BF00237519A84286
:1012E00032BF0746149FF7191B98349D002800F061
:1012F000F680DE1B3396CDF8ACC025942393289757
:10130000139522901398139B0F9C0028CCBF064680
:1013100000262598E318984232BF0346139BE31832
:101320003398F41A04FB00FA2398289CA042F04654
:101330004FF0000980F2C5802B9C239D2C925043D6
:10134000041B28982196451B1198279312941F95EA
:10135000129A0D9B129C279E5242D8BF00221B1B43
:101360008B423ABF0D9B1D1B0D46219C109B444395
:10137000E31A219CB44280F29980AD1A3295A6EB13
:10138000040C129D309E049C009FCDF898B07543CC
:101390003195CDF880A0039D029E11901C91CDF84F
:1013A000A4E01E929A46E346319ADDF8BCE0DAF1F9
:1013B0000001D8BF002101EB0A0C0EFB0C22A6EBAA
:1013C0000A00B84217980244269834BFA6EB0A03D5
:1013D0003B4608B94FEA0800DDF830E0DDF8C8C048
:1013E0005B1ABEF1010F12D108910993CDF81CC010
:1013F0001E9906911C9905910090049703960295F9
:10140000019441460B9B0020FFF732FA28E0A645E5
:1014100012D1099308910090CDF81CC0049703964F
:101420000295019400201C9B1E990593069141464C
:101430000B9BFFF7A5FA13E009910A930090CDF8F2
:1014400020C0049703960295019400201E990C9BDE
:10145000079106931C990B9B05914146FFF732FBC0
:101460000E9B2A464146404698472098DDF858C0D2
:1014700009F10109484518BF002000902B46299822
:101480002A464146E0471198DDF85480BBF1010B34
:10149000824489D111981C99DDF898B0DDF8A4E058
:1014A000DDF880A00494039502960097129A2C9B75
:1014B0009A1812921F9A521E1F927FF449AF1190F0
:1014C0002C9A1398199B18181390229B18985B1E3E
:1014D000864422937FF416AFDDF8ACC0259C149BA4
:1014E0001D9D249EEB18761E149324967FF4EFAE78
:1014F00035B0BDE8F08F00002DE9F04F89B04069AC
:101500000068016842688068D0F8008044680E680E
:10151000D2F800E0DEF80C00DEF81020B568DEF846
:1015200008105043D8F8002013684FEA535AC3F309
:10153000C6190AF0030A5B0C002729FA0AF903F01E
:101540000F03CDF80490042B366814BF082BD7681E
:10155000DEF80020D8F81830D2F80890B2680028D9
:1015600009EB810666D0CDF81C800594069104979E
:1015700000960390079801688868059909B10C687E
:10158000A168049C002C009C10D1A14547D2A24622
:101590002E464F461C46904681460D46002D19BFEB
:1015A00055F8040B02900021029128E0A14536D2A3
:1015B000049C009F9846164682468B46BBF1000F5E
:1015C00019BF5BF8040B029000200290019900956E
:1015D000042933462246514602A803D1FFF7F0FC06
:1015E00002E000BFFFF780FB029849F8040BB94501
:1015F000C244E3D304944346324600970FE0334697
:101600004246494602A800F0F5FF029847F8040B4D
:101610005745A144C2D335462346B94642460098B1
:10162000069900EB810403980094401E02EB8502AA
:1016300003909FD109B0BDE8F08F00002DE9F04F75
:101640008AB015468B469A46149BD0F804C0696848
:1016500000915C680294B3F8009004885E8840882A
:10166000BBF80010BBF80220B5F800E06F88DBF88B
:1016700004300593049300254FFA8AF3002B0CBF26
:10168000A0468046012F0CBF00230423BEF1010FAA
:1016900004D1012F07D0C6F1000E05E0012F08BFCD
:1016A0004FF0010E00D0AE460FFA8EF701974FFAB9
:1016B0008AF7002F0CBFA3468346CB4515D19DF971
:1016C0004CE0BEF1000F0CBF91468946B1450CD1EC
:1016D0004FFA8AF6002E0CBF8346A346BEF1000FD8
:1016E0000CBF0E461646B3456CD06FF002000AB030
:1016F000BDE8F08F059D9700089786000796CDF806
:1017000018C0ADF802404446DDF810C04FFA8AF622
:10171000DDF81880002E9FED341A0CBF0646BDF888
:101720000260B6B14FFA8AF7002F0CBF0427079F5B
:10173000BEF1000FD8ED001A95ED002AB8440CBF99
:10174000089F0427ED19761EB7B2002F01EE821A0A
:10175000E8D120EE011ADBED001A641E00EEA11A9A
:10176000A4B2BEF1000F89ED001A0EBF151B0D1BB0
:101770005543002C09F104099B440CEB8505C5D1A8
:10178000DDF80C90069DBDF80240CDF810C0099E12
:101790004E4403964FFA8AF6002E0CBF4FEA800C97
:1017A0004FF0040CAC44019D0BEB850BBDF80050D1
:1017B0006E1EADF80060BDF8005055B900200AB0AB
:1017C000BDE8F08FDDF800B00395ADF80080CDF8EE
:1017D000249003AE029D3688BEF1000F05EB86090A
:1017E0000CBF9046884685E700000000E50C000825
:1017F000F0B58BB0416909680A68496809680D68E5
:10180000146853689268AD68CE680F690995ADF8A1
:101810002070ADF822602568E668AD682469ADF8EF
:101820001840ADF81A6007951C68DD68A4681B694C
:10183000ADF81030ADF8125005941368D4689B6869
:101840001269ADF80820ADF80A4008AA0393019286
:1018500002AA90F92110009104A990F92030D0ED4E
:10186000070A90ED060A06A8FFF7E8FE0BB0F0BDE8
:101870002DE9F0410F4614462DED028B022C064651
:1018800097ED008ADFEDC38A3DD3611E3A1D11F04A
:1018900003000CD092ED000AB4EE480AF1EE10FA03
:1018A00058BFB0EE408A401E02F10402F2D189080E
:1018B00000F02B8092ED000AB4EE480AF1EE10FA27
:1018C00058BFB0EE408A92ED010AB4EE480AF1EE3C
:1018D00010FA58BFB0EE408A92ED020AB4EE480A00
:1018E000F1EE10FA58BFB0EE408A92ED030AB4EE62
:1018F000480AF1EE10FA58BFB0EE408A491E02F1D4
:101900001002D7D101E0002C40D0B0464FEA0405C8
:1019100097ED000A30EE480A07F0ECF83F1D88ED1D
:10192000000A6D1E78EE808A08F10408F0D1B7EE47
:10193000000A14F0030080EE280A09D0D6ED000A50
:1019400060EE800AC6ED000A401E06F10406F5D1DD
:10195000A4081BD0D6ED000A60EE800AC6ED000A8E
:10196000641E96ED011AD6ED020A21EE001A86EDEC
:10197000011A60EE800A96ED031AC6ED020A21EE06
:10198000001A86ED031A06F11006E3D1BDEC028BB6
:10199000BDE8F0812DE9F04381B00C4604EB8209EB
:1019A000089E099F4C4580461D460AD22A4621467C
:1019B0004046FFF75DFF04EB86044C4508EB8708C3
:1019C000F4D301B0BDE8F08370B50D4605EB820697
:1019D000B542044680F00A8095ED000A07F032F81F
:1019E00084ED000A241D2D1DB542F5D370BD000005
:1019F00070B50D4605EB8206B542044680F01480B2
:101A000095ED000AB1EE400A07F074F8F7EE000A0F
:101A100070EE200AB7EE000A80EE200A84ED000A7C
:101A2000241D2D1DB542EBD370BD000001EB8202D9
:101A3000914216D24FF0FF3391ED000AB5EE400A05
:101A4000F1EE10FACCBF9FEDC60A00EE103A091D68
:101A50008446B8EEC00A91420CF104008CED000AF5
:101A6000EAD3704701EB8202914216D2034691ED10
:101A7000001A181DB4EE410AF1EE10FA58BFB0EE8C
:101A8000401AB4EE601AF1EE10FA58BFB0EE601AC8
:101A9000091D914283ED001AE8D3704701EB8202E1
:101AA00091420FD2034691ED000A181DB5EE400A8F
:101AB000F1EE10FAD8BF9FED370A091D914283ED70
:101AC000000AEFD37047000001EB820291421AD264
:101AD000B1EE080A0346D1ED000A181DF5EE400AE2
:101AE000F1EE10FA08DDF4EE400AF1EE10FA58BFFC
:101AF000F0EE400A02E000BFDFED260A091D914228
:101B0000C3ED000AE6D37047F0B581B00D4605EB92
:101B100082062DED048BB5420446F0EE408AB0EE0D
:101B2000608A32D2274695ED009A3C1DB5EE409A68
:101B3000F1EE10FA4CBFDFED179AF0EE499AB0EED5
:101B4000490A06F0D7FFFFEE000A30EE200A20EE29
:101B5000280AB5EE400AF1EE10FA05DD9FED0D1AE8
:101B600079EE819A0AE000BFB0EE490A06F0C2FFA2
:101B7000FFEE000A30EE200A40EE289A2D1D28EED6
:101B8000290AB54287ED000ACCD3BDEC048B01B025
:101B9000F0BD00000000000001EB8303994220D259
:101BA00091ED000A92ED001AB5EE400AF1EE10FA3E
:101BB0004CBFDFEDA50AF0EE400AB1EE400AB5EEEB
:101BC000400AF1EE10FA48BF9FED9F0A091D121D51
:101BD000844641EE400A99420CF10400CCED000A23
:101BE000DED37047406903681968D1F800C0DCF89B
:101BF0000420DCF80800DCF80C104243DCF810008C
:101C0000DCF800C04A4359680B684243DCF808001E
:101C1000D3F800C0DCF8081000EB820290420FD22B
:101C20000B4690ED000A191DB5EE400AF1EE10FAD0
:101C3000D8BF9FED850A001D904283ED000AEFD3C7
:101C400070470000406903681968D1F800C0DCF8EB
:101C50000420DCF80800DCF80C104243DCF810002B
:101C6000DCF800C04A4359680B684243DCF80800BE
:101C7000D3F800C0DCF8081000EB820290421AD2C0
:101C8000B1EE080A0B46D0ED000A191DF5EE400A28
:101C9000F1EE10FA08DDF4EE400AF1EE10FA58BF4A
:101CA000F0EE400A02E000BFDFED670A001D90423F
:101CB000C3ED000AE6D37047F0B581B02DED048B7B
:101CC000416990ED078A0D68D0ED068A2A6814688C
:101CD00020686368A168E2684B432169846868688A
:101CE00053434B4301680A68956804EB8306B4428A
:101CF00031D22F4694ED009A3D1DB5EE409AF1EE9B
:101D000010FA4CBFDFED509AF0EE499AB0EE490A56
:101D100006F0F0FEFFEE000A30EE200A20EE280A60
:101D2000B5EE400AF1EE10FA04DD9FED471A79EEA8
:101D3000819A09E0B0EE490A06F0DCFEFFEE000AE7
:101D400030EE200A40EE289A241D28EE290AB442DB
:101D500087ED000ACDD3BDEC048B01B0F0BD0000CF
:101D60000100000030B441690C68226815686B6896
:101D7000A968EA6880694B4329692D685343626802
:101D800014684B43A96825680468AA68A06801EB39
:101D9000830399421FD2144691ED000A221DB5EE2D
:101DA000400AF1EE10FA4CBFDFED270AF0EE400AD0
:101DB000B1EE400AB5EE400AF1EE10FA48BF9FEDD1
:101DC000220A90ED001A091D001D41EE400A9942B9
:101DD000C4ED000ADFD330BC7047000040690368DF
:101DE0001968D1F800C0DCF80420DCF80800DCF841
:101DF0000C104243DCF81000DCF800C04A4359687C
:101E00000B684243DCF80800D3F800C0DCF8081087
:101E100000EB8202904216D24FF0FF3390ED000AA1
:101E2000B5EE400AF1EE10FACCBF9FED080A00EEC5
:101E3000103A001D8C46B8EEC00A90420CF1040125
:101E40008CED000AEAD3704700000000010000009A
:101E500030B4416990ED070A0C68D0ED060A22689B
:101E600015686B68A968EA68286880684B43296927
:101E700053434B4361680A681468A16800EB83020E
:101E8000904216D20B4690ED001A191DF4EE410A4D
:101E9000F1EE10FA58BFB0EE601AB4EE401AF1EE4F
:101EA00010FA58BFB0EE401A001D904283ED001AA0
:101EB000E8D330BC7047000070B54069036819680A
:101EC0000C686268A068E168424320692468A468DD
:101ED0004A434243586801680B689D6804EB8206D8
:101EE000B44213D294ED000AB1EE400A06F002FEAD
:101EF000F7EE000A70EE200AB7EE000A80EE200A24
:101F000085ED000A2D1D241DB442EBD370BD0000E9
:101F100070B54069036819680C686268A068E16878
:101F2000424320692468A4684A43424358680168D0
:101F30000B689D6804EB8206B44209D294ED000A56
:101F400006F080FD85ED000A2D1D241DB442F5D359
:101F500070BD30B583B04069046821680D68AA6817
:101F60000192009213466868E968424328692D6827
:101F70004A43424360680468A9682568A868FFF777
:101F800009FD03B030BD000070B401EB8204A14232
:101F900057D2002B51D013F003020D46064611D044
:101FA00096ED000AD5ED000AF4EE400AF1EE10FAC3
:101FB00058BFB0EE600A86ED000A521E361D2D1D78
:101FC000002AEDD19A0838D0D5ED000AD6ED001AD6
:101FD000F4EE610AF1EE10FA48BFF0EE610AC6EDC8
:101FE000000AD5ED010AD6ED011A96ED020AF4EECB
:101FF000610AF1EE10FA48BFF0EE610AC6ED010A7F
:1020000095ED021AD6ED031AB4EE401AF1EE10FA6D
:1020100048BFB0EE401A86ED021AD5ED030AF4EE81
:10202000610AF1EE10FA58BFF0EE601AC6ED031A1D
:10203000521E10361035002AC6D101EB8301A14291
:10204000A7D370BC7047000070B401EB8204A142BA
:102050004FD2002B49D013F003020D4606460ED096
:1020600095ED000A88421CBFD6ED000A30EE800ACA
:1020700086ED000A521E361D2D1D002AF0D19A0849
:1020800033D08842D5ED001A0CD1C6ED001A95ED7B
:10209000010A86ED010AD5ED021AC6ED021AD5ED48
:1020A000031A1BE0D6ED000A30EEA10A86ED000A05
:1020B00096ED011A95ED010AD6ED021A31EE000AED
:1020C00086ED010AD5ED020A31EEA00A86ED020A7C
:1020D00096ED030A95ED031A70EE011AC6ED031A88
:1020E000521E10361035002ACBD101EB8301A142DC
:1020F000AFD30399A1B300EE101AB8EE400AF7EE81
:10210000000A80EE800A5BB313F0030100F00A803E
:10211000D0ED000A60EE800AC0ED000A491E00F111
:102120000400F5D19B081BD0D0ED000A60EE800AB8
:10213000C0ED000A5B1E90ED011AD0ED020A21EEFF
:10214000001A80ED011A60EE800A90ED031AC0EDCE
:10215000020A21EE001A80ED031A00F11000E3D10B
:1021600070BC70472DE9F04F03468EB05869006887
:10217000016840680C68076821693D690991FA683F
:102180000892D4F80C80A1689A69D86907905E6AB1
:10219000186A0D963F682468D7F808E0DF6A9E6ADF
:1021A000A4687F42002D009700F0D9800195764207
:1021B0000C9601FB08F50B95009D009B009F6D425E
:1021C000099DCCBF0026009EEB1A079DAB4288BF3D
:1021D0002B46DF19089B0C9D002B00F0B78008FBF5
:1021E00006FACDF828A0CDF80C800292069005964C
:1021F00004976842039F029ADDF82C80CCBF002030
:1022000028467F1B974288BF17460A9A7F193F1AB4
:10221000801848434F4304EB800C11B311F00300C6
:102220007246664600F0068056F8049B42F8049B0E
:10223000401EF9D1880814D096ED000A82ED000AFC
:10224000401ED6ED010AC2ED010A96ED020A82EDAA
:10225000020AD6ED030AC2ED030A10321036002836
:10226000EAD10598049A904266DA1046059A821AD5
:10227000E2460AEB870BDA455AD2002954D011F016
:1022800003005646F14612D099ED000AD6ED000A39
:10229000F4EE400AF1EE10FA58BFB0EE600A401EAC
:1022A000361D89ED000A002809F10409ECD18808DF
:1022B00000F03A80D6ED000AD9ED001AF4EE610A7A
:1022C000F1EE10FA48BFF0EE610AC9ED000AD6ED52
:1022D000010AD9ED011A99ED020AF4EE610AF1EE54
:1022E00010FA48BFF0EE610AC9ED010A96ED021A34
:1022F000D9ED031AB4EE401AF1EE10FA48BFB0EE71
:10230000401A89ED021AD6ED030AF4EE610AF1EEE5
:1023100010FA58BFF0EE601A401E1036C9ED031ACD
:10232000002809F11009C5D10AEB810ADA45A4D3C6
:10233000521E0CEB880C9BD1069845195B1E0EEBC8
:10234000810E7FF456AFDDF80C80029A009D0D9B44
:102350005D190095019D6D1E01957FF42DAF0EB0A6
:10236000BDE8F08F2DE9F04F94B0416909680A6823
:10237000496815680E682A6933690C92F4680B94F1
:10238000EA68A968D0F81880C4690A94D0F820C017
:10239000476A13972D68876A3468C06AD5F808E0E1
:1023A000D4F808904042002B019000F020817F4239
:1023B00001FB02F403931297119401980C9B019E68
:1023C000129C40420198CCBF0027019F181A0A9B1B
:1023D000984288BF184686190B98002800F0FE80A6
:1023E000054602FB07F010900592B81B0F90CDF840
:1023F0001080CDF824C0CDF820E007970696009411
:1024000002950098059ADDF800E0119C4042009882
:10241000CCBF4FF0000CDDF800C0101A049A9042B7
:1024200088BF104686440F98109AACEB0E054543C2
:10243000089862444A43AEEB0C0600EB82074E4319
:10244000002289B111F003004B4603D0401E43F82F
:10245000042BFBD1880807D01A605A609A60DA60B2
:10246000401E03F11003F7D10798069B984280F2B3
:10247000A3801B1AAEEB0C000D900E9494460D98A1
:1024800084446545BE460CBF2C4600240EEB8608EE
:10249000C6454ED20022002947D011F00300F24673
:1024A000CB4610D09AED000AF1451CBFDBED000AC7
:1024B00030EE800A521C8BED000A401E0BF1040B1B
:1024C0000AF1040AEED1880800F02F800EEB820A90
:1024D00009EB8202DAED001AF1451CBF92ED000A09
:1024E00070EE211AC2ED001ADAED011A1CBFD2ED0E
:1024F000010A70EEA11AC2ED011A9AED021A1CBF70
:1025000092ED020A30EE011A82ED021ADAED031A98
:102510001CBFD2ED030A70EEA11AC2ED031A401ED1
:10252000103200280AF1100AD4D10EEB810EC645F4
:10253000B0D3002C3AD000EE104AB8EE400AF7EEC5
:10254000000A80EE800A002281B311F003004C469D
:1025500000F00B80D4ED000A60EE800A521CC4ED3E
:10256000000A401E04F10404F4D1880800F01E8023
:1025700009EB8202D2ED000A60EE800AC2ED000A89
:10258000401E92ED011AD2ED020A21EE001A82EDF0
:10259000011A60EE800A92ED031AC2ED020A21EEE2
:1025A000001A82ED031A02F11002E3D10E985B1EAD
:1025B00007EB80077FF463AF0098099A101800902A
:1025C00009EB81090298401E02907FF41AAF059A28
:1025D000DDF81080DDF824C0DDF820E0019C139BBD
:1025E0001C190194039C641E03947FF4E6AE14B09E
:1025F000BDE8F08F30B50446084681B011461A4652
:10260000002500956B4603F0EFF894ED000ADDED30
:10261000000A70EE200AC4ED000A01B030BD0000CF
:10262000F0EE400AF5EE400AF1EE10FA9FED280AAE
:1026300001DBB1EEE00A704706F05CBA06F0D8BAEA
:1026400006F000BAB5EE400AF1EE10FAD8BF9FEDE1
:10265000200A7047B5EE400AF1EE10FAD8BF20EE1E
:10266000200A704700B581B0B1EE400A06F042FA88
:10267000F7EE000A30EE200AB7EE001A81EE000AEB
:1026800001B000BDF0EE400A9FED121AB6EE000A4E
:1026900000EE810ADFED100AB4EE600AF1EE10FAE6
:1026A00007DAB5EE400AF1EE10FA04D59FED080AFC
:1026B0007047B7EE000A7047B5EE400AF1EE10FA27
:1026C000CCBF9FED060A9FED060AB8EEC00A704720
:1026D00000000000CDCC4C3E0100803F0100000016
:1026E000FFFFFFFF81F0004102E000BF83F00043E5
:1026F00030B54FEA41044FEA430594EA050F08BF9D
:1027000090EA020F1FBF54EA000C55EA020C7FEA60
:10271000645C7FEA655C00F0E2804FEA5454D4EBDD
:102720005555B8BF6D420CDD2C4480EA020281EAA7
:10273000030382EA000083EA010180EA020281EADF
:102740000303362D88BF30BD11F0004F4FEA013131
:102750004FF4801C4CEA113102D0404261EB410140
:1027600013F0004F4FEA03334CEA133302D05242C6
:1027700063EB430394EA050F00F0A780A4F1010482
:10278000D5F1200E0DDB02FA0EFC22FA05F28018BC
:1027900041F1000103FA0EF2801843FA05F35941A2
:1027A0000EE0A5F120050EF1200E012A03FA0EFC21
:1027B00028BF4CF0020C43FA05F3C01851EBE3714B
:1027C00001F0004507D54FF0000EDCF1000C7EEB68
:1027D00000006EEB0101B1F5801F1BD3B1F5001FA6
:1027E0000CD349085FEA30004FEA3C0C04F10104C5
:1027F0004FEA445212F5800F80F09A80BCF1004FEE
:1028000008BF5FEA500C50F1000041EB045141EA6F
:10281000050130BD5FEA4C0C404141EB010111F470
:10282000801FA4F10104E9D191F0000F04BF01461B
:102830000020B1FA81F308BF2033A3F10B03B3F1F9
:1028400020020CDA0C3208DD02F1140CC2F10C0289
:1028500001FA0CF021FA02F10CE002F11402D8BFE7
:10286000C2F1200C01FA02F120FA0CFCDCBF41EAB3
:102870000C019040E41AA2BF01EB0451294330BD82
:102880006FEA04041F3C1CDA0C340EDC04F114045F
:10289000C4F1200220FA04F001FA02F340EA030036
:1028A00021FA04F345EA030130BDC4F10C04C4F17C
:1028B000200220FA02F001FA04F340EA030029465C
:1028C00030BD21FA04F0294630BD94F0000F83F4A6
:1028D000801306BF81F480110134013D4EE77FEA89
:1028E000645C18BF7FEA655C29D094EA050F08BFD5
:1028F00090EA020F05D054EA000C04BF19461046B6
:1029000030BD91EA030F1EBF0021002030BD5FEAF9
:10291000545C05D14000494128BF41F0004130BD21
:1029200014F580043CBF01F5801130BD01F0004575
:1029300045F0FE4141F470014FF0000030BD7FEAE8
:10294000645C1ABF194610467FEA655C1CBF0B46E3
:10295000024650EA013406BF52EA033591EA030FFA
:1029600041F4002130BD00BF90F0000F04BF0021F2
:10297000704730B54FF4806404F132044FF0000525
:102980004FF0000150E700BF90F0000F04BF00219E
:10299000704730B54FF4806404F1320410F0004504
:1029A00048BF40424FF000013EE700BF42004FEAFF
:1029B000E2014FEA31014FEA02701FBF12F07F437C
:1029C00093F07F4F81F06051704732F07F4208BF33
:1029D000704793F07F4F04BF41F40021704730B53A
:1029E0004FF4607401F0004521F000411CE700BF86
:1029F00050EA010208BF704730B54FF000050AE009
:102A000050EA010208BF704730B511F0004502D509
:102A1000404261EB41014FF4806404F132045FEA0B
:102A2000915C3FF4D8AE4FF003025FEADC0C18BFB4
:102A300003325FEADC0C18BF033202EBDC02C2F1A6
:102A4000200300FA03FC20FA02F001FA03FE40EA38
:102A50000E0021FA02F11444BDE600BF70B54FF03C
:102A6000FF0C4CF4E06C1CEA11541DBF1CEA13551A
:102A700094EA0C0F95EA0C0F00F0DEF82C4481EA82
:102A8000030621EA4C5123EA4C5350EA013518BFA2
:102A900052EA033541F4801143F4801338D0A0FB8F
:102AA00002CE4FF00005E1FB02E506F00042E0FB3C
:102AB00003E54FF00006E1FB03569CF0000F18BF42
:102AC0004EF0010EA4F1FF04B6F5007F64F54074EA
:102AD00004D25FEA4E0E6D4146EB060642EAC6217D
:102AE00041EA55514FEAC52040EA5E504FEACE2EEA
:102AF000B4F1FD0C88BFBCF5E06F1ED8BEF1004FED
:102B000008BF5FEA500E50F1000041EB045170BD68
:102B100006F0004646EA010140EA020081EA0301AC
:102B2000B4EB5C04C2BFD4EB0C0541EA045170BDA8
:102B300041F480114FF0000E013C00F3AB8014F122
:102B4000360FDEBF002001F0004170BDC4F100046B
:102B5000203C35DA0C341BDC04F11404C4F12005EC
:102B600000FA05F320FA04F001FA05F240EA020047
:102B700001F0004221F0004110EBD37021FA04F67D
:102B800042EB06015EEA430E08BF20EAD37070BD37
:102B9000C4F10C04C4F1200500FA04F320FA05F096
:102BA00001FA04F240EA020001F0004110EBD37098
:102BB00041F100015EEA430E08BF20EAD37070BD08
:102BC000C4F1200500FA05F24EEA020E20FA04F3E1
:102BD00001FA05F243EA020321FA04F001F0004190
:102BE00021FA04F220EA020000EBD3705EEA430E01
:102BF00008BF20EAD37070BD94F0000F0FD101F030
:102C00000046400041EB010111F4801F08BF013C68
:102C1000F7D041EA060195F0000F18BF704703F0A6
:102C20000046520043EB030313F4801F08BF013D2D
:102C3000F7D043EA0603704794EA0C0F0CEA1355E9
:102C400018BF95EA0C0F0CD050EA410618BF52EAA3
:102C50004306D1D181EA030101F000414FF00000A9
:102C600070BD50EA410606BF1046194652EA4306B7
:102C700019D094EA0C0F02D150EA013613D195EA2B
:102C80000C0F05D152EA03361CBF104619460AD173
:102C900081EA030101F0004141F0FE4141F470017D
:102CA0004FF0000070BD41F0FE4141F4780170BD6D
:102CB00070B54FF0FF0C4CF4E06C1CEA11541DBFD2
:102CC0001CEA135594EA0C0F95EA0C0F00F0A7F8D4
:102CD000A4EB050481EA030E52EA03354FEA013101
:102CE00000F088804FEA03334FF0805545EA131314
:102CF00043EA12634FEA022245EA111545EA1065DC
:102D00004FEA00260EF000419D4208BF964244F172
:102D1000FD0404F5407402D25B084FEA3202B61A91
:102D200065EB03055B084FEA32024FF480104FF465
:102D3000002CB6EB020E75EB030E22BFB61A7546D9
:102D400040EA0C005B084FEA3202B6EB020E75EB6C
:102D5000030E22BFB61A754640EA5C005B084FEAD4
:102D60003202B6EB020E75EB030E22BFB61A7546A1
:102D700040EA9C005B084FEA3202B6EB020E75EBAC
:102D8000030E22BFB61A754640EADC0055EA060E6D
:102D900018D04FEA051545EA16754FEA06164FEAB0
:102DA000C30343EA52734FEAC2025FEA1C1CC0D15C
:102DB00011F4801F0BD141EA00014FF000004FF0E9
:102DC000004CB6E711F4801F04BF01430020B4F1AA
:102DD000FD0C88BFBCF5E06F3FF6AFAEB5EB030C62
:102DE00004BFB6EB020C5FEA500C50F1000041EB5F
:102DF000045170BD0EF0004E4EEA113114EB5C042C
:102E0000C2BFD4EB0C0541EA045170BD41F48011FE
:102E10004FF0000E013C90E645EA060E8DE60CEA06
:102E2000135594EA0C0F08BF95EA0C0F3FF43BAF23
:102E300094EA0C0F0AD150EA01347FF434AF95EADA
:102E40000C0F7FF425AF104619462CE795EA0C0FBE
:102E500006D152EA03353FF4FDAE1046194622E78B
:102E600050EA410618BF52EA43067FF4C5AE50EA65
:102E700041047FF40DAF52EA43057FF4EBAE12E755
:102E80004FEA4102B2F1E04324BFB3F5001CDCF18C
:102E9000FE5C0DD901F0004C4FEAC0024CEA5070C4
:102EA000B2F1004F40EB830008BF20F001007047F3
:102EB00011F0804F21D113F13872BCBF01F00040F6
:102EC000704741F480114FEA5252C2F11802C2F128
:102ED000200C10FA0CF320FA02F018BF40F00100A9
:102EE0004FEAC1234FEAD32303FA0CFC40EA0C005B
:102EF00023FA02F34FEA4303CCE77FEA625307D198
:102F000050EA01331EBF4FF0FE4040F440007047CE
:102F100001F0004040F0FE4040F40000704700BF68
:102F200053B94AB9002908BF00281CBF4FF0FF3130
:102F30004FF0FF3000F072B9ADF1080C6DE904CE2E
:102F400000F006F8DDF804E0DDE9022304B0704784
:102F50002DE9F047089E04468846002B4BD18A4253
:102F6000154667D9B2FA82F24AB1C2F1200701FAD6
:102F700002F320FA07F7954047EA030894404FEA26
:102F8000154E230CB8FBFEF71FFA85FC0EFB1788C5
:102F900043EA084307FB0CF1994209D9EB1807F102
:102FA000FF3080F01B81994240F21881023F2B4490
:102FB0005B1AA4B2B3FBFEF00EFB103344EA0344E9
:102FC00000FB0CFCA44509D92C1900F1FF3380F05B
:102FD0000781A44540F2048102382C4440EA0740AE
:102FE000A4EB0C0400271EB1D4400023C6E9004323
:102FF0003946BDE8F0878B4209D9002E00F0EB80FE
:103000000027C6E9000138463946BDE8F087B3FA23
:1030100083F7002F47D18B4202D3824200F2FA801D
:10302000841A61EB030301209846002EE0D0C6E924
:103030000048DDE702B9FFDEB2FA82F2002A40F072
:103040008F80491B4FEA154E1FFA85F80127B1FB07
:10305000FEFC230C0EFB1C1143EA014308FB0CF1A0
:10306000994207D9EB180CF1FF3002D2994200F2D5
:10307000CD808446591AA3B2B1FBFEF00EFB1014AA
:1030800043EA044408FB00F8A04507D92C1900F1D5
:10309000FF3302D2A04500F2B6801846A4EB080424
:1030A00040EA0C409FE7C7F1200CBB4022FA0CFE1F
:1030B0004EEA030E01FA07F420FA0CF521FA0CF39C
:1030C0004FEA1E482543B3FBF8F92C0C08FB1933D3
:1030D0001FFA8EFA44EA034309FB0AF49C4202FAFF
:1030E00007F200FA07F10BD91EEB030309F1FF30D9
:1030F00080F087809C4240F28480A9F102097344E9
:103100001B1BADB2B3FBF8F008FB103345EA0344D8
:1031100000FB0AFAA24508D91EEB040400F1FF33B4
:103120006BD2A24569D90238744440EA0940A0FB39
:103130000289A4EB0A044C45C2464B4654D351D0F5
:10314000002E69D0B1EB0A0564EB030404FA0CFC11
:10315000FD40FC404CEA0505C6E90054002747E75E
:10316000C2F1200320FA03F7954001FA02F021FA98
:1031700003F34FEA154E3843010CB3FBFEF71FFA79
:1031800085F80EFB173341EA034107FB08F38B4236
:1031900004FA02F407D9691807F1FF3C2FD28B42D9
:1031A0002DD9023F2944CB1A81B2B3FBFEF00EFBAE
:1031B000103341EA034100FB08F38B4207D9691839
:1031C00000F1FF3C17D28B4215D902382944C91AA5
:1031D00040EA07473BE73746304609E70746E7E658
:1031E0001846FBE64145ABD2B8EB020A69EB0E028A
:1031F00001381346A4E76046E9E7184695E76746B5
:10320000D1E781467CE702382C4447E7ACF1020C59
:103210002B442FE7384608E73746E9E6704700BFFA
:10322000034613F8012B002AFBD1181A0138704706
:1032300001F0FF01102A2BDB10F0070F08D010F867
:10324000013B013A8B422DD010F0070F42B3F6D16B
:10325000F0B441EA012141EA014122F007047FF084
:1032600000070023F0E80256083C85EA010586EADB
:10327000010685FA47F5A3FA87F586FA47F6A5FA17
:1032800087F68EB9EED1F0BC01F0FF0102F0070223
:1032900032B110F8013B013A83EA010313B1F8D1CE
:1032A0000020704701387047002D06BF35460338AF
:1032B000073815F0010F07D1013015F4807F02BFE8
:1032C000013015F4C03F0130F0BC0138704700BF39
:1032D0004FF0FF3C06E000BF4FF0010C02E000BFE2
:1032E0004FF0010C4DF804CD4FEA410C7FEA6C5CC5
:1032F0004FEA430C18BF7FEA6C5C1BD001B050EA68
:10330000410C0CBF52EA430C91EA030F02BF90EA52
:10331000020F0020704710F1000F91EA030F58BF11
:10332000994208BF90422CBFD8176FEAE37040F073
:10333000010070474FEA410C7FEA6C5C02D150EA11
:10334000013C07D14FEA430C7FEA6C5CD6D152EACC
:10335000033CD3D05DF8040B704700BF8446104691
:1033600062468C461946634600E000BF01B5FFF790
:10337000B7FF002848BF10F1000F01BD4DF808ED60
:10338000FFF7F4FF0CBF012000205DF808FB00BF31
:103390004DF808EDFFF7EAFF34BF012000205DF88B
:1033A00008FB00BF4DF808EDFFF7E0FF94BF0120D8
:1033B00000205DF808FB00BF4DF808EDFFF7CEFFD9
:1033C00094BF012000205DF808FB00BF4DF808ED18
:1033D000FFF7C4FF34BF012000205DF808FB00BFE9
:1033E0004FEA410C7FEA6C5C02D150EA013C0AD101
:1033F0004FEA430C7FEA6C5C02D152EA033C02D1F3
:103400004FF0000070474FF0010070474FEA410253
:1034100012F5001215D211D56FF47873B3EB625226
:1034200012D94FEAC12343F0004343EA505311F04D
:10343000004F23FA02F018BF404270474FF00000DF
:10344000704750EA013005D111F0004008BF6FF01D
:10345000004070474FF00000704700BF01230B7021
:10346000002048708870C870486010238B60C86066
:1034700000230B61014A4A618B6170470000C84319
:1034800000200870487001238B70C8704860886005
:103490003223CB6000230B614B61014B8B61704782
:1034A0000000C8424FF07F530B600020704732236A
:1034B0000B6000207047002070470000F7EE007A94
:1034C000B4EEE70AF1EE10FA26D9F2EE047AB4EE81
:1034D000E70AF1EE10FA24D9F3EE097AB4EEE70A1E
:1034E000F1EE10FA1FD9DFED137AB4EEE70AF1EE30
:1034F00010FA1AD9DFED107AB4EEE70AF1EE10FAFD
:1035000015D9DFED0E7AB4EEE70AF1EE10FA01D923
:10351000072302E0062300E0012380F82A30002080
:1035200070470223F9E70323F7E70423F5E70523B0
:10353000F3E700BF000048420000C84200004843D3
:1035400010B584682CB1446941F04001007BA0476C
:1035500010BD446941F08001007BA047F8E710B539
:1035600084682CB1046941F04001007BA04710BD84
:10357000046941F08001007BA047F8E790F829300A
:10358000012B0DD010B5044690F82A101C3000F025
:103590004EFC034638B9012284F82920184610BD94
:1035A0000023184670474FF0FF33F7E708B5F7EEF2
:1035B000007AB4EEE70AF1EE10FA24D9F2EE047ABA
:1035C000B4EEE70AF1EE10FA25D9F3EE097AB4EE7B
:1035D000E70AF1EE10FA20D9DFED157AB4EEE70A2A
:1035E000F1EE10FA1BD9DFED137AB4EEE70AF1EE33
:1035F00010FA16D9DFED107AB4EEE70AF1EE10FA00
:1036000011D8062100E001211C3000F010FC034617
:1036100058B9184608BD0221F6E70321F4E7042152
:10362000F2E70521F0E70721EEE74FF0FF33F0E77F
:10363000000048420000C8420000484308B590F826
:103640002930012B02D0FFF739FF08BDFFF7AEFF8D
:10365000FBE738B5054600F11C040121204600F0C7
:1036600032FCB8B90021204600F0CBFCA8B90523F4
:1036700085F82A300021204600F0D9FB80B90021CE
:10368000204600F0FAFB034668B9012285F828209D
:10369000184638BD4FF0FF33FAE74FF0FF33F7E736
:1036A0004FF0FF33F4E74FF0FF33F1E708B502299D
:1036B00005DD04290BDD08290BDC022100E00021D7
:1036C0001C3000F0DAFB034628B9184608BD01217A
:1036D000F6E70321F4E74FF0FF33F6E708B51C30B7
:1036E00000F06AFC034608B9184608BD4FF0FF33E6
:1036F000FAE738B590F8293013B90023184638BDD9
:10370000044600F11C0500F12A01284600F0A6FB42
:1037100048B90021284600F08AFB034630B9002250
:1037200084F82920EAE74FF0FF33E7E74FF0FF3353
:10373000E4E710B50446FFF7DCFF38B90246002382
:1037400084F82A3084F82830104610BD4FF0FF323C
:10375000FAE7000030B583B00D4600F11C040DF10E
:103760000701204600F040FB00285ED10DF1060164
:10377000204600F073FB0346002859D19DF807202E
:10378000022A0AD09DF80620092A57D8DFE802F05D
:103790002F34383B3E414447564A9DF80620092ABB
:1037A00049D8DFE802F005080C0F1215181B1E217E
:1037B00000222A601DE04FF07E522A6019E0214A63
:1037C0002A6016E0204A2A6013E0204A2A6010E0AE
:1037D0001F4A2A600DE01F4A2A600AE01E4A2A603A
:1037E00007E01E4A2A6004E01D4A2A6001E0002228
:1037F0002A60184603B030BD4FF07E522A60F8E7C9
:10380000104A2A60F5E7104A2A60F2E70F4A2A6058
:10381000EFE70F4A2A60ECE70E4A2A60E9E70E4A12
:103820002A60E6E70F4A2A60E3E74FF0FF33E0E75C
:103830004FF0FF33DDE74FF0FF33DAE74FF0FF33B0
:10384000D7E700BF000020410000C8410000484207
:103850000000C842000048430000C8430080CA443A
:103860000000A8450000A84410B582B00C460DF138
:1038700007011C3000F018FBB0B902469DF8073074
:10388000032B14D8DFE803F002070A0D094B23606D
:10389000104602B010BD084B2360F9E7074B2360C8
:1038A000F6E7074B2360F3E74FF0FF32F0E74FF006
:1038B000FF32EDE748E17A3F9A99F93F9A997940CA
:1038C0001F853B4110B582B00C460DF107011C303D
:1038D00000F0EAFAB0B902469DF80730032B14D87D
:1038E000DFE803F002070A0D094B2360104602B01F
:1038F00010BD084B2360F9E7074B2360F6E7074B41
:103900002360F3E74FF0FF32F0E74FF0FF32EDE7CF
:103910009A997940713DFA407B147A419A993B42D9
:1039200010B582B00C460DF107011C3000F0BCFA56
:10393000B0B902469DF80730032B14D8DFE803F036
:1039400002070A0D094B2360104602B010BD084B58
:103950002360F9E7074B2360F6E7074B2360F3E7A3
:103960004FF0FF32F0E74FF0FF32EDE77B147A4182
:103970007B14FA417B147A427B943B4330B583B08D
:1039800004460D460DF107011C3000F02DFA48BB2E
:103990009DF80730012B11D033B1022B18D04FF016
:1039A000FF33184603B030BD29462046FFF75CFFC1
:1039B00003460028F5D04FF0FF33F2E729462046B2
:1039C000FFF780FF03460028EBD04FF0FF33E8E716
:1039D00029462046FFF7A4FF03460028E1D04FF018
:1039E000FF33DEE74FF0FF33DBE710B582B00C4664
:1039F0000DF107011C3000F057FAB0B902469DF8EE
:103A00000730032B14D8DFE803F002070A0D022366
:103A10002360104602B010BD04232360F9E7082399
:103A20002360F6E710232360F3E74FF0FF32F0E75F
:103A30004FF0FF32EDE770B584B00C4600F11C0684
:103A40000DF10701304600F0CFF938BB9DF8073083
:103A5000012B1ED023B1022B1DD04FF0FF3215E0F9
:103A6000102502A9304600F045FA0246C8B9BDF952
:103A7000083093FBF5F32380BDF90A3093FBF5F38F
:103A80006380BDF90C3093FBF5F5A580104604B0BA
:103A900070BD4025E5E74FF48075E2E74FF0FF3257
:103AA000F4E74FF0FF32F1E730B585B005460C463C
:103AB0000023019302A9FFF7BEFF70BB01A92846AE
:103AC000FFF75CFF034658BBBDF9082007EE102A3C
:103AD000B8EEC77ADDED017A27EE277ABDEEC77A18
:103AE00084ED007ABDF90A2007EE102AB8EEC77AF5
:103AF00027EE277ABDEEC77A84ED017ABDF90C2056
:103B000007EE102AB8EEC77A67EE877AFDEEE77AFD
:103B1000C4ED027A184605B030BD4FF0FF33F9E727
:103B20004FF0FF33F6E790F82930012B0CD010B599
:103B3000044600211C3000F0E4F9034638B90122A4
:103B400084F82920184610BD0023184670474FF00E
:103B5000FF33F7E790F8293013B900231846704770
:103B600010B5044602211C3000F0CBF9034620B901
:103B7000002284F82920184610BD4FF0FF33FAE7E1
:103B800010B50446FFF7E6FF28B90346002284F883
:103B90002820184610BD4FF0FF33FAE708B5F2EEC3
:103BA000047AB4EEE70AF1EE10FA0FD9F3EE047AD4
:103BB000B4EEE70AF1EE10FA10D9DFED0C7AB4EEAC
:103BC000E70AF1EE10FA0BD8022100E000211C30C8
:103BD00000F0AEF9034628B9184608BD0121F6E702
:103BE0000321F4E74FF0FF33F6E700BF000048423F
:103BF00038B5054600F11C040121204600F0BEF94D
:103C0000A0B90221204600F07CF990B9032120469A
:103C100000F08EF980B90021204600F0DBF9034660
:103C200068B9012285F82820184638BD4FF0FF33C7
:103C3000FAE74FF0FF33F7E74FF0FF33F4E74FF0C9
:103C4000FF33F1E708B51C3000F0BDF9034608B9B1
:103C5000184608BD4FF0FF33FAE7000010B582B0F8
:103C60000C460DF107011C3000F079F9B0B902469D
:103C70009DF80730032B14D8DFE803F002070A0D84
:103C8000094B2360104602B010BD084B2360F9E7D2
:103C9000074B2360F6E7074B2360F3E74FF0FF3253
:103CA000F0E74FF0FF32EDE7000020410000A041B7
:103CB000000048420000C84210B582B00C46694678
:103CC0001C3000F072F960B90346BDF90020228073
:103CD000BDF902206280BDF90420A280184602B01E
:103CE00010BD4FF0FF33F9E770B584B006460C46BF
:103CF00002A91C3000F059F968BB054601A93046FD
:103D0000FFF7D0FBBDF9083007EE103AB8EEC77ADE
:103D1000DDED017A27EE277ABDEEC77A84ED007AD1
:103D2000BDF90A3007EE103AB8EEC77A27EE277AC7
:103D3000BDEEC77A84ED017ABDF90C3007EE103A7A
:103D4000B8EEC77A67EE877AFDEEE77AC4ED027ABD
:103D5000284604B070BD4FF0FF35F9E700282AD09F
:103D600010B504460A680260486860608868A06010
:103D7000087B207308692061486960618969A161D5
:103D8000124921621249E1616462C2B1904703465F
:103D9000C0B9A26812B194F828200AB1184610BD23
:103DA000012104F11C0000F043F903460028F5D07E
:103DB0004FF0FF33F2E74FF0FF33184670474FF0F4
:103DC000FF33EBE74FF0FF33E8E700BF4135000872
:103DD0005F35000810B544688068A04710BD10B575
:103DE00004688068A04710BD70B582B005460E46D5
:103DF000012301AA2021FFF7EDFF9DF80440C4F341
:103E0000C004012301AA23212846FFF7E3FF9DF800
:103E10000430C3F3C0031CB933B90123337001E08C
:103E20000223337002B070BD00233370FAE730B55F
:103E300083B004460D46012301AA2021FFF7CAFFE3
:103E40009DF8043065F307138DF80430012301AAAF
:103E500020212046FFF7C3FF03B030BD10B582B06C
:103E60000C46012301AA2021FFF7B4FF9DF804307E
:103E7000C3F30313237002B010BD30B583B0044602
:103E80000D46012301AA2321FFF7A4FF9DF804306A
:103E900065F305138DF80430012301AA2321204680
:103EA000FFF79DFF03B030BD10B582B00C46012373
:103EB00001AA2321FFF78EFF9DF80430C3F30113FD
:103EC000237002B010BD30B583B004460D46012307
:103ED00001AA2321FFF77EFF9DF8043065F3C71385
:103EE0008DF80430012301AA23212046FFF777FF34
:103EF00003B030BD08B506230A462821FFF76AFF44
:103F000008BD30B583B004460D46012301AA6021E7
:103F1000FFF760FF9DF8043065F301038DF804306E
:103F2000012301AA60212046FFF759FF03B030BDED
:103F300030B583B004460D46012301AA6021FFF786
:103F400049FF9DF8043065F383038DF804300123A5
:103F500001AA60212046FFF742FF03B030BD10B533
:103F600082B00C46012301AA6021FFF733FF9DF8C0
:103F70000430C3F38103237002B010BD30B583B0A9
:103F800004460D46012301AA6221FFF723FF9DF895
:103F9000043065F304138DF80430012301AA622173
:103FA0002046FFF71CFF03B030BD08B506230A46C4
:103FB0006821FFF70FFF08BD08B501230A460F214E
:103FC000FFF708FF08BD08B501230A464F21FFF798
:103FD00001FF08BD30B583B004460D46012301AA98
:103FE0006221FFF7F7FE9DF8043065F341038DF879
:103FF0000430012301AA62212046FFF7F0FE03B03E
:1040000030BD30B583B004460D46012301AA2E21F0
:10401000FFF7E0FE9DF8043065F387138DF8043058
:10402000012301AA2E212046FFF7D9FE03B030BD9F
:1040300030B583B004460D46012301AA6221FFF783
:10404000C9FE9DF8043065F345138DF80430012353
:1040500001AA62212046FFF7C2FE03B030BD000076
:1040600001230B704B7000208870C8704FF4FA6306
:104070004B6010238B60C860024B0B614B610023C7
:104080008B6170470020D045F2EE097AB4EEE70A62
:10409000F1EE10FA3BD9F3EE0A7AB4EEE70AF1EE4C
:1040A00010FA39D9DFED237AB4EEE70AF1EE10FA0F
:1040B00034D9DFED217AB4EEE70AF1EE10FA2FD908
:1040C000DFED1E7AB4EEE70AF1EE10FA2AD9DFED41
:1040D0001C7AB4EEE70AF1EE10FA25D9DFED197A71
:1040E000B4EEE70AF1EE10FA20D9DFED177AB4EE5C
:1040F000E70AF1EE10FA1BD9DFED147AB4EEE70A05
:10410000F1EE10FA01D90A2302E0092300E00123AD
:1041100080F82B30002070470223F9E70323F7E7EC
:104120000423F5E70523F3E70623F1E70723EFE789
:104130000823EDE7000050420000D0420000504349
:104140000000D043004050440080CF440020504540
:10415000F2EE097AB4EEE70AF1EE10FA3BD9F3EE8B
:104160000A7AB4EEE70AF1EE10FA39D9DFED237AD4
:10417000B4EEE70AF1EE10FA34D9DFED217AB4EEAD
:10418000E70AF1EE10FA2FD9DFED1E7AB4EEE70A56
:10419000F1EE10FA2AD9DFED1C7AB4EEE70AF1EE5F
:1041A00010FA25D9DFED197AB4EEE70AF1EE10FA2C
:1041B00020D9DFED177AB4EEE70AF1EE10FA1BD939
:1041C000DFED147AB4EEE70AF1EE10FA01D90A2312
:1041D00002E0092300E0012380F82C300020704722
:1041E0000223F9E70323F7E70423F5E70523F3E7C1
:1041F0000623F1E70723EFE70823EDE7000050422D
:104200000000D042000050430000D0430040504422
:104210000080CF440020504510B54469007BA04782
:1042200010BD10B50469007BA04710BD90F829307F
:10423000012B0DD010B5044690F82B101C3000F067
:10424000A3FC034638B9012284F82920184610BD82
:104250000023184670474FF0FF33F7E708B5F2EE3A
:10426000097AB4EEE70AF1EE10FA39D9F3EE0A7AD8
:10427000B4EEE70AF1EE10FA3AD9DFED277AB4EEA0
:10428000E70AF1EE10FA35D9DFED247AB4EEE70A49
:10429000F1EE10FA30D9DFED227AB4EEE70AF1EE52
:1042A00010FA2BD9DFED1F7AB4EEE70AF1EE10FA1F
:1042B00026D9DFED1D7AB4EEE70AF1EE10FA21D926
:1042C000DFED1A7AB4EEE70AF1EE10FA1CD9DFED51
:1042D000187AB4EEE70AF1EE10FA17D8092100E0D7
:1042E00001211C3000F050FC034688B9184608BD77
:1042F0000221F6E70321F4E70421F2E70521F0E7C4
:104300000621EEE70721ECE70821EAE70A21E8E7C2
:104310004FF0FF33EAE700BF000050420000D042F8
:10432000000050430000D043004050440080CF4480
:104330000020504508B590F82930012B02D0FFF736
:10434000A3FE08BDFFF78AFFFBE708B5022905DDDC
:1043500004290BDD08290BDC032100E000211C30BF
:1043600000F0D4FB034628B9184608BD0221F6E741
:104370000121F4E74FF0FF33F6E790F82A30012BE4
:104380000DD010B5044690F82C101C3000F098FCAD
:10439000034638B9012284F82A20184610BD0023AC
:1043A000184670474FF0FF33F7E7000008B5F2EE0C
:1043B000097AB4EEE70AF1EE10FA39D9F3EE0A7A87
:1043C000B4EEE70AF1EE10FA3AD9DFED277AB4EE4F
:1043D000E70AF1EE10FA35D9DFED247AB4EEE70AF8
:1043E000F1EE10FA30D9DFED227AB4EEE70AF1EE01
:1043F00010FA2BD9DFED1F7AB4EEE70AF1EE10FACE
:1044000026D9DFED1D7AB4EEE70AF1EE10FA21D9D4
:10441000DFED1A7AB4EEE70AF1EE10FA1CD9DFEDFF
:10442000187AB4EEE70AF1EE10FA17D8092100E085
:1044300001211C3000F044FC034688B9184608BD31
:104440000221F6E70321F4E70421F2E70521F0E772
:104450000621EEE70721ECE70821EAE70A21E8E771
:104460004FF0FF33EAE700BF000050420000D042A7
:10447000000050430000D043004050440080CF442F
:104480000020504508B590F82A30012B02D0FFF7E4
:104490005FFE08BDFFF78AFFFBE738B5054600F170
:1044A0001C040121204600F092FC48BB012120465B
:1044B00000F05CFC38BB0021204600F0A4FC28BBC7
:1044C000042385F82B300021204600F05DFB00BB63
:1044D0000021204600F01AFBF0B9042385F82C30A7
:1044E0000021204600F0ECFBC8B90621204600F070
:1044F000A4FB0346B0B9012285F82820184638BD30
:104500004FF0FF33FAE74FF0FF33F7E74FF0FF3399
:10451000F4E74FF0FF33F1E74FF0FF33EEE74FF0F2
:10452000FF33EBE74FF0FF33E8E708B57D2909DDFE
:10453000FA290FDDB1F5FA7F0EDDB1F57A7F0DDCDA
:10454000042100E001211C3000F077FB034638B95C
:10455000184608BD0021F6E70221F4E70621F2E73C
:104560004FF0FF33F4E708B51C3000F029FC034698
:1045700008B9184608BD4FF0FF33FAE738B590F890
:10458000293013B90023184638BD044600F11C0534
:1045900000F12B01284600F013FB48B90021284602
:1045A00000F0F2FA034630B9002284F82920EAE745
:1045B0004FF0FF33E7E74FF0FF33E4E710B582B089
:1045C0000C460DF107011C3000F0FAFA002832D138
:1045D00002469DF807300B2B30D8DFE803F0060EBB
:1045E0001114171A1D202326290B002323601046BF
:1045F00002B010BD134B2360F9E7134B2360F6E7BD
:10460000124B2360F3E7124B2360F0E7114B23605A
:10461000EDE7114B2360EAE7104B2360E7E7104B0F
:104620002360E4E70F4B2360E1E70F4B2360DEE7F5
:104630000E4B2360DBE74FF0FF32D8E74FF0FF323D
:10464000D5E700BFCDCCCC3F000048410000D041B1
:10465000000050420000D042000050430000D04310
:10466000004050440080CF44002050450020D045F9
:1046700010B582B00C460DF107011C3000F062FA53
:10468000B0B902469DF80730032B14D8DFE803F0D9
:10469000020D070A094B2360104602B010BD084BFB
:1046A0002360F9E7074B2360F6E7074B2360F3E746
:1046B0004FF0FF32F0E74FF0FF32EDE723DB793DBB
:1046C00023DBF93D23DB793E23DBF93E10B582B0D5
:1046D0000C460DF107011C3000F034FAB0B9024667
:1046E0009DF80730032B14D8DFE803F0020D070A0A
:1046F00002232360104602B010BD04232360F9E7B3
:1047000008232360F6E710232360F3E74FF0FF321E
:10471000F0E74FF0FF32EDE710B582B00C46694686
:104720001C3000F046FB60B90346BDF90020228032
:10473000BDF902206280BDF90420A280184602B0B3
:1047400010BD4FF0FF33F9E730B585B005460C4694
:104750000023019302A91C3000F02BFB70BB01A9C0
:104760002846FFF785FF034658BBBDF9082007EE32
:10477000102AB8EEC77ADDED017A27EE277ABDEE72
:10478000C77A84ED007ABDF90A2007EE102AB8EE48
:10479000C77A27EE277ABDEEC77A84ED017ABDF994
:1047A0000C2007EE102AB8EEC77A67EE877AFDEE86
:1047B000E77AC4ED027A184605B030BD4FF0FF33FA
:1047C000F9E74FF0FF33F6E738B590F82A3013B920
:1047D0000023184638BD044600F11C0500F12C01E9
:1047E000284600F089FA48B90021284600F068FA06
:1047F000034630B9002284F82A20EAE74FF0FF335D
:10480000E7E74FF0FF33E4E710B50446FFF7B6FEE5
:1048100068B92046FFF7D8FF024658B9002384F84C
:104820002B3084F82C3084F82830104610BD4FF01F
:10483000FF32FAE74FF0FF32F7E7000010B582B021
:104840000C460DF107011C3000F056FA00282FD15C
:1048500002469DF807300A2B2DD8DFE803F0060B3F
:104860000E1114171A1D2023260000232360104662
:1048700002B010BD114B2360F9E7114B2360F6E73E
:10488000104B2360F3E7104B2360F0E70F4B2360DE
:10489000EDE70F4B2360EAE70E4B2360E7E70E4B93
:1048A0002360E4E70D4B2360E1E70D4B2360DEE777
:1048B0004FF0FF32DBE74FF0FF32D8E7000048410E
:1048C0000000D041000050420000D04200005043A0
:1048D0000000D043004050440080CF4400205045A9
:1048E0000020D04510B582B00C460DF107011C30F8
:1048F00000F0BFF9D8B902469DF80730062B19D849
:10490000DFE803F009040C180F1812000B4B2360AA
:10491000104602B010BD0A4B2360F9E7094B236033
:10492000F6E7094B2360F3E7084B2360F0E74FF00D
:10493000FF32EDE74FF0FF32EAE700BF00008C40A6
:1049400000000C4100008C4100000C4200008C4231
:1049500010B582B00C460DF107011C3000F089F94A
:10496000F0B902469DF80730062B1CD8DFE803F0AB
:1049700009040C1B101B14007D232360104602B099
:1049800010BDFA232360F9E74FF4FA732360F5E7CB
:104990004FF47A732360F1E74FF4FA632360EDE795
:1049A0004FF0FF32EAE74FF0FF32E7E710B582B091
:1049B0000C4669461C3000F0F5F960B90346BDF9B4
:1049C00000202280BDF902206280BDF90420A2806F
:1049D000184602B010BD4FF0FF33F9E730B585B08F
:1049E00005460C4602A91C3000F0DCF970BB01A999
:1049F0002846FFF777FF034658BBBDF9082007EEAE
:104A0000102AB8EEC77ADDED017A27EE277ABDEEDF
:104A1000C77A84ED007ABDF90A2007EE102AB8EEB5
:104A2000C77A27EE277ABDEEC77A84ED017ABDF901
:104A30000C2007EE102AB8EEC77A67EE877AFDEEF3
:104A4000E77AC4ED027A184605B030BD4FF0FF3367
:104A5000F9E74FF0FF33F6E710B582B002AC04F887
:104A6000012D012322461C3000F04BF8034610B9FB
:104A7000184602B010BD4FF0FF33F9E700282CD0E4
:104A800010B504460A680260486860608868A060E3
:104A9000087B207308692061486960618969A161A8
:104AA000134921621349E1616462D2B19047034620
:104AB000D0B9A268022A01D0184610BD94F8282067
:104AC000002AF9D10C2212212046FFF7C5FF034628
:104AD0000028F1D04FF0FF33EEE74FF0FF331846D8
:104AE00070474FF0FF33E7E74FF0FF33E4E700BFD5
:104AF000194200082342000810B544688068A047A6
:104B000010BD10B504688068A04710BD30B583B0F3
:104B100004460D46012301AA1021FFF7EDFF0346CD
:104B200010B1184603B030BD9DF8043065F383031F
:104B300002AA02F8043D012310212046FFF7E1FFFD
:104B40000346EEE710B582B00C46012301AA1021FE
:104B5000FFF7D2FF9DF80430C3F38103032B10D875
:104B6000DFE803F00206090C0023237002B010BD39
:104B700001232370FAE702232370F7E7032323704E
:104B8000F4E704232370F1E730B583B004460D4603
:104B9000012301AA1021FFF7AFFF034610B1184609
:104BA00003B030BD9DF8043065F3071302AA02F884
:104BB000043D012310212046FFF7A3FF0346EEE743
:104BC00010B582B00C46012301AA1021FFF794FF13
:104BD0009DF804301B090B2B2CD8DFE803F0060AE4
:104BE0000D101316191C1F2225280023237002B054
:104BF00010BD01232370FAE702232370F7E7032394
:104C00002370F4E704232370F1E705232370EEE714
:104C100006232370EBE707232370E8E708232370BC
:104C2000E5E709232370E2E70A232370DFE70B237C
:104C30002370DCE70C232370D9E730B583B004463A
:104C40000D46012301AA1121FFF756FF034610B1BB
:104C5000184603B030BD9DF8043065F3430302AA43
:104C600002F8043D012311212046FFF74AFF0346C5
:104C7000EEE710B582B00C46012301AA1121FFF71F
:104C80003BFF9DF80430C3F34203062B15D8DFE841
:104C900003F004080B140E1411000023237002B05B
:104CA00010BD01232370FAE702232370F7E70423E2
:104CB0002370F4E706232370F1E707232370EEE760
:104CC00030B583B004460D46012301AA1121FFF738
:104CD00013FF034610B1184603B030BD9DF80430F1
:104CE00065F3071302AA02F8043D012311212046AF
:104CF000FFF707FF0346EEE710B582B00C4601232D
:104D000001AA1121FFF7F8FE9DF804301B090A2BB8
:104D100029D8DFE803F0060A0D101316191C1F220C
:104D200025000023237002B010BD01232370FAE791
:104D300002232370F7E703232370F4E7042323708F
:104D4000F1E705232370EEE706232370EBE7072343
:104D50002370E8E708232370E5E709232370E2E7DF
:104D60000A232370DFE70B232370DCE730B583B021
:104D700004460D46012301AA1221FFF7BDFE03469A
:104D800010B1184603B030BD9DF8043065F38613AA
:104D900002AA02F8043D012312212046FFF7B1FECA
:104DA0000346EEE708B506230A462221FFF7A4FED4
:104DB00008BD08B506230A462821FFF79DFE08BD59
:104DC00008B501230A460F21FFF796FE08BD30B54E
:104DD00083B004460D46012301AA1221FFF78CFE81
:104DE000034610B1184603B030BD9DF8043065F39A
:104DF000820302AA02F8043D012312212046FFF794
:104E000080FE0346EEE730B583B004460D4601232D
:104E100001AA0A21FFF770FE034610B1184603B03D
:104E200030BD9DF8043065F3020302AA02F8043D88
:104E300001230A212046FFF764FE0346EEE7000047
:104E400010B588B004461B4B9A6D42F080529A65AB
:104E50009B6D03F080530093009B01F00BF84CB95D
:104E6000144BDA6C42F04002DA64DB6C03F040036E
:104E70000193019B012C12D00F4B53F82430039364
:104E80000123049300230593022306930B4B03EBAA
:104E9000840403A9606800F017FE08B010BD054B3C
:104EA000DA6C42F00102DA64DB6C03F00103029376
:104EB000029BE1E70010024068C30008C000002028
:104EC00008B5054B03EB8003044A32F820105868FC
:104ED00000F079FF08BD00BFC000002068C30008D3
:104EE00000B589B0114B9A6D42F480429A659A6D73
:104EF00002F480420192019ADA6C42F00202DA6412
:104F0000DB6C03F002030293029B4FF420430393F4
:104F1000022304930122059206930523079303A914
:104F2000034800F0D1FD09B05DF804FB0010024019
:104F30000004004808B5054A936D23F48043936547
:104F40004FF42041024800F0A9FE08BD00100240C5
:104F50000004004810B5064C2046FFF7EBFF204642
:104F600002F09BF808B9002010BD6FF00700FBE7C6
:104F7000FC10002010B50C464FF47A730A46014627
:104F8000044802F0A0F808B9204610BD6FF00500F3
:104F9000FBE700BFFC10002008B500F0A9FC08BD2D
:104FA00038B50446194B03604FF4827343604FF4E5
:104FB000004383604FF4E063C36002230361012375
:104FC00043614FF4007383613023C36100230362A4
:104FD000436283620722C2620363436302F005F8FF
:104FE000054600B10125052000F088FC2268136801
:104FF00043F480431360052000F080FC22681368AE
:1050000043F040031360284638BD00BF003800401D
:1050100010B50A480A4B036002F043F908B10020BA
:1050200010BD064C2046FFF75BFF2046FFF7B8FF98
:105030000028F5D06FF00700F2E700BFFC10002059
:105040000038004072B60268136843F040031360F2
:10505000BFF34F8FBFF34F8F0268136823F04003F5
:10506000136062B603689A6812F0010FFAD01B7BD6
:105070000B7003689B6813F0800FFAD170470368C8
:105080009A6812F0020FFAD0197303689A6812F442
:10509000C05FFAD19A6812F0800FFBD1704772B6E8
:1050A0000268136843F040031360BFF34F8FBFF3F0
:1050B0004F8F0268136823F04003136062B60368E1
:1050C0009A6812F0010FFAD01B7B0B7003689B6883
:1050D00013F0800FFAD1704703689A6812F0020F3C
:1050E000FAD0197303689A6812F4C05FFAD19A680B
:1050F00012F0800FFBD1704770B590B006460223C6
:105100000B9300238DF830302F4B09932F4B0A93CC
:105110002F4B0E932F4B0D932F4B0F9309A92F4815
:10512000FFF7ACFC002845D10DF123012B48FFF718
:105130001AFA0546002840D19DF823306A2B3FD14A
:10514000264C01A92046FEF78BFF9DF805209DF80F
:10515000043042EA43039DF8061043EA81032363C7
:105160001F4B1C601F4BA36316F0010F0BD0012ACD
:1051700009D120461C4B23641A4B1B6898470546EF
:1051800008B16FF0040516F0020F0DD09DF8043041
:10519000012B09D1114B154A5A649B6B1B68104AAD
:1051A00010689847054610B9284610B070BD6FF0DA
:1051B0000405F9E76FF00605F6E76FF00605F3E77B
:1051C0006FF00605F0E700BFC9530008A1530008BF
:1051D000F1510008F5520008994F0008EC06002034
:1051E000C4110020B0000020680000208C000020C6
:1051F0002DE9F84391461F465FFA81F8002530E01B
:105200001A4E00224FF48051304600F0D7FD08EBD3
:10521000050149B261F07F01154CC9B22046FFF784
:105220002EFF2268136823F040031360226813687E
:1052300023F48043136009EB05012046FFF702FFCA
:1052400001224FF48051304600F0B8FD2268136807
:1052500043F4804313602268136843F040031360F3
:105260000135AF42CCDC0020BDE8F88300040048E3
:10527000FC1000202DE9F84391461F465FFA81F8A3
:1052800000252EE0194E00220221304600F096FD46
:1052900008EB050149B261F07F01154CC9B2204607
:1052A000FFF71AFF2268136823F040031360226897
:1052B000136823F48043136009EB05012046FFF7D0
:1052C000EEFE01220221304600F078FD22681368CC
:1052D00043F4804313602268136843F04003136073
:1052E0000135AF42CEDC0020BDE8F8830004004861
:1052F000FC10002070B582B016461D4602AC04F8C2
:10530000011D00224FF480510F4800F057FD01218C
:105310002046FFF72FFE012810D06FF00504294624
:105320003046FFF727FEA8420AD101224FF48051F0
:10533000054800F043FD204602B070BD0024EEE7B2
:105340006FF00504F1E700BF0004004870B582B0BB
:1053500016461D4602AC04F8011D002202210F482A
:1053600000F02CFD01212046FFF704FE01280FD09C
:105370006FF0050429463046FFF7FCFDA84209D12D
:1053800001220221054800F019FD204602B070BD3F
:105390000024EFE76FF00504F2E700BF00040048C7
:1053A00008B5FFF7D7FD034608B9184608BD6FF0EA
:1053B0000503FAE708B5FFF7CDFD034608B918461F
:1053C00008BD6FF00503FAE770B586B0184C0122EE
:1053D0004FF48051204600F0F1FC03230493002396
:1053E00003930125029503F1804303F50433DA6C3E
:1053F00042F00202DA64DB6C03F002030093009BCC
:105400004FF4805606A941F8146D204600F05CFB6D
:105410002A463146204600F0D1FCFFF7F9FD03464D
:1054200010B9184606B070BD6FF00503F9E700BF6C
:10543000000400482DE9F04389B0DFF89C80012288
:105440001021404600F0BAFC214E012202213046D4
:1054500000F0B4FC0323069300230593012704976F
:105460001C4CE36C43F00403E364E36C03F00403BB
:105470000193019B4FF0100908AD45F8149D294692
:10548000404600F021FB3A464946404600F096FC73
:10549000E36C43F00203E364E36C03F00203029362
:1054A000029B022403942946304600F00DFB3A4645
:1054B0002146304600F082FCFFF7AAFD034618B9EA
:1054C000184609B0BDE8F0836FF00503F8E700BFA8
:1054D000000400480010024000080048F0B591B0F8
:1054E000074601230B9300238DF83030264B099398
:1054F000264B0A93264B0E93264B0D93264B0F9368
:1055000009A92648FEF72AFC002833D10DF1230112
:105510002248FEF797FB064678BB9DF82330402BC8
:105520002ED11F4C04F1580501A92846FDF7A8FF0C
:105530009DF805309DF8042043EA42039DF80620BB
:1055400043EA82036363174B5D60174BE36317F015
:10555000040F09D0012A07D1144B6365124B1B6855
:1055600028469847064610B9304611B0F0BD6FF096
:105570000406F9E76FF00606F6E76FF00606F3E7B4
:105580006FF00606F0E700BF35540008B553000879
:10559000755200084D530008994F00084407002039
:1055A000EC060020C4110020240000200000002090
:1055B0002DE9F04188B00F46064620B101282CD0D5
:1055C0006FF0010070E00846FFF796FD00286ED1ED
:1055D0003D4B03EB86039B6BDB6801A93B4A52F80A
:1055E00026009847002865D19DF80430012B0BD088
:1055F000B0469DF80530012B09D09DF80630012BEF
:1056000008D00025012432E04FF00208F1E748F00D
:105610000108F2E748F00408F3E70846FFF75EFFE9
:1056200000284AD1284B03EB86039B6BDB6801A95A
:10563000264A52F826009847002841D19DF80430A8
:10564000012B0CD04FF000089DF80530012B09D03C
:105650009DF80630012BD4D148F00408D1E74FF073
:105660000208F1E748F00108F2E764000135022D75
:1056700019D834EA0703F8D134EA0803F5D1144BFA
:1056800053F8242006EB46031A440F4B03EB820326
:105690001B6C1B680D4A52F8260098470028E4D07E
:1056A0006FF0040000E0002008B0BDE8F0814FF08A
:1056B000FF30F9E76FF00600F6E74FF0FF30F3E751
:1056C0006FF00600F0E700BFEC060020C4110020D8
:1056D00070C3000808B501281ED80B46114901EB1C
:1056E0008001096B33EA010119D111460E4A52F8C3
:1056F000232000EB40031A440A4B03EB82031B6C8C
:105700001B6A0A4A52F820009847034608B918460F
:1057100008BD6FF00403FAE76FF00103F7E76FF0DD
:105720000103F4E7EC06002070C30008C411002058
:1057300008B501281ED80B46114901EB8001096B01
:1057400033EA010119D111460E4A52F8232000EB29
:1057500040031A440A4B03EB82031B6C9B680A4A02
:1057600052F820009847034608B9184608BD6FF064
:105770000403FAE76FF00103F7E76FF00103F4E7C2
:10578000EC06002070C30008C411002008B50128F1
:105790001ED80B46114901EB8001096B33EA010168
:1057A00019D111460E4A52F8232000EB40031A4447
:1057B0000A4B03EB82031B6C9B690A4A52F82000D8
:1057C0009847034608B9184608BD6FF00403FAE786
:1057D0006FF00103F7E76FF00103F4E7EC06002038
:1057E00070C30008C411002010B49408DFED1E7AC5
:1057F00022E090ED007AD1ED006A27EE267A77EE6E
:10580000877A90ED017AD1ED016A27EE267A77EE5C
:10581000877A90ED027AD1ED026A27EE267A77EE4A
:10582000877A90ED037AD1ED036A27EE267A77EE38
:10583000877A013C10311030002CDAD102F00302DB
:105840000AE090ED007AD1ED006A27EE267A77EE35
:10585000877A013A04310430002AF2D1C3ED007A8C
:105860005DF8044B704700BF00000000104B1B6840
:105870000BB90120704710B504464FF47A70B0FBA5
:10588000F3F30C4A1068B0FBF3F000F091F868B93C
:105890000F2C01D901200AE0002221464FF0FF30F1
:1058A00000F052F8024B5C60002000E0012010BDC7
:1058B000CC000020F804002010B5032000F032F8DE
:1058C0000020FFF7D3FF10B10124204610BD04468D
:1058D00002F052FFF9E70000034A13680349096820
:1058E0000B441360704700BFCC110020CC00002097
:1058F000014B1868704700BFCC11002038B5044632
:10590000FFF7F6FF0546B4F1FF3F02D0044B1B68DA
:105910001C44FFF7EDFF401BA042FAD338BD00BF87
:10592000CC000020074AD36823F4E0631B041B0C5F
:10593000000200F4E060184340F0BF6040F4003023
:10594000D060704700ED00E030B4174BDB68C3F364
:105950000223C3F10704042C28BF04241D1D062DB7
:1059600018D9033B4FF0FF3505FA04F421EA04018E
:10597000994005FA03F322EA0303194300280BDBDD
:105980000901C9B200F1604000F5614080F80013E0
:1059900030BC70470023E5E700F00F000901C9B2F1
:1059A000024B1954F4E700BF00ED00E014ED00E0F5
:1059B0000138B0F1807F0AD2064B5860064AF021C8
:1059C00082F823100020986007221A607047012097
:1059D000704700BF10E000E000ED00E0002838D084
:1059E00010B50446437F1BB30223637723791BBBA7
:1059F0002368194A5A612268936823F01803936058
:105A0000637913BB23684FF0FF321A6122689368F1
:105A100023F0600361690B4393602268936823F06D
:105A20008003A1690B43936001236377002010BDBD
:105A3000037702F0B9FED7E7E268A168204600F0DC
:105A40000DF80028DCD00120F1E7236822691A61F3
:105A5000DCE70120704700BFB71DC10430B41F242C
:105A6000651E3CB105F01F0321FA03F32C4613F029
:105A7000010FF5D0182A23D8DFE802F00F222222E6
:105A8000222222221E222222222222221A22222202
:105A9000222222220D00062D14D8036859610168C4
:105AA0008B6823F018031A438A60002030BC7047CB
:105AB000072DF2D90120F9E70F2DEED90120F5E7E6
:105AC0000120F3E70120F1E7F0B482B0002341E0C8
:105AD000D0F82CC02CEA040CC6F3C0049C4044EA65
